:0301A1000119033E
:10017F00E51924FE600E14601224027014C2A1D27D
:10018F00A0D2A222C2A0D2A1D2A222D2A0D2A1C218
:02019F00A2229A
:0801CD0012008F12017F80F87F
:0C01A4000A083F065B4F666D7D077F6F09
:10011600EF14B40800505490012B75F003A4C58366
:1001260025F0C5837302014302014702014B020118
:100136004F02015302015B02016302016BD2A480EC
:100146000ED2A48012D2A48016D2A4801AC2A4D23F
:10015600A3D2A28016C2A4D2A3C2A2800EC2A4C2F7
:10016600A3D2A28006C2A4C2A3C2A274082DF8E636
:09017600F5801201D5E4F58022A8
:1001B900EF4E600F7D027CC7DCFEDDFCEF1F70F0A7
:0301C9001E80EDA8
:0101CC002210
:0401D5007F2BDFFE9F
:0101D9002203
:0801B000C100C181C102C103BD
:10008F0030023D0514E51470020513D39410E513E7
:10009F009427400FE4F513F514D200300105C20187
:1000AF0075190130B013C202D201E4F513F5143003
:1000BF000004C200800375190230034A7519032228
:1000CF0020B0400512E512D39414403AE4F5122003
:1000DF00B002D202C3E5169458E5159402502705D5
:1000EF0018E51870020517941EE5179400400AE4EE
:1000FF00F517F51820B002D2030516E51670D505D1
:06010F001580D1E4F51299
:0101150022C7
:03000000020003F8
:0C000300787FE4F6D8FD75812002004AE9
:10000F000201CDE493A3F8E493A34003F68001F239
:10001F0008DFF48029E493A3F85407240CC8C333F2
:10002F00C4540F4420C8834004F456800146F6DFC1
:10003F00E4800B01020408102040809001A1E47EAF
:10004F00019360BCA3FF543F30E509541FFEE493B6
:10005F00A360010ECF54C025E060A840B8E493A37D
:10006F00FAE493A3F8E493A3C8C582C8CAC583CAA8
:10007F00F0A3C8C582C8CAC583CADFE9DEE780BE60
:0101B8000046
:00000001FF
