:0301CA0001160318
:1001A800E51624FE600E14601224027014C2A0D258
:1001B800A1D2A222D2A0C2A1D2A222D2A0D2A1C2EE
:0201C800A22271
:1001E6005389F0438901E4F58A758CDCC28DD28C83
:0501F600D2A9D2AF22E6
:10017C001201E6E5186020E4F5181201488F17E526
:10018C0017B40103751601E517B40203751602E5E1
:0C019C0017B403037516031201A880D7E6
:03000B0002020FDF
:0A020F00758A00758CDC7518013249
:0C01CD000A083F065B4F666D7D077F6FE0
:10009A00EF14B4080050549000AF75F003A4C58360
:1000AA0025F0C583730200C70200CB0200CF02000D
:1000BA00D30200D70200DF0200E70200EFD2A480D9
:1000CA000ED2A48012D2A48016D2A4801AC2A4D2BC
:1000DA00A3D2A28016C2A4D2A3C2A2800EC2A4C274
:1000EA00A3D2A28006C2A4C2A3C2A274082DF8E6B3
:0900FA00F580120003E4F58022F8
:1001FB00EF4E600F7D027CC7DCFEDDFCEF1F70F065
:03020B001E80ED65
:01020E0022CD
:040003007F2BDFFE72
:0100070022D6
:0C01D900011200011300011400011500C8
:10010300E4FFA2B033FEE512146012146019146008
:100113002D2403702FEE702C7512018027EE7021B1
:10012300F513751202801DEE60047F018013051321
:10013300E513C39464400D7F037512038006EE60DC
:0401430003E4F512CA
:010147002295
:10014800E4FD120103E514146012047024BF0108D1
:10015800E4F5157514018019AD078015BF01047DFC
:1001680002800B0515E515C3943240057D01E4F5C1
:0301780014AF05BC
:01017B002261
:0300000002000EED
:0C000E00787FE4F6D8FD758118020055DB
:10001A0002017CE493A3F8E493A34003F68001F27F
:10002A0008DFF48029E493A3F85407240CC8C333E7
:10003A00C4540F4420C8834004F456800146F6DFB6
:10004A00E4800B01020408102040809001CAE47E7B
:10005A00019360BCA3FF543F30E509541FFEE493AB
:10006A00A360010ECF54C025E060A840B8E493A372
:10007A00FAE493A3F8E493A3C8C582C8CAC583CA9D
:10008A00F0A3C8C582C8CAC583CADFE9DEE780BE55
:0101E5000019
:00000001FF
